:020000040800F2
:1000000060090020A1010008453300083D2A0008CE
:10001000B93200085B1200086B3A000800000000CB
:100020000000000000000000000000003D36000855
:100030005D120008000000003B3600083F36000853
:10004000BB010008BB010008BB010008BB010008A0
:10005000BB010008BB010008BB010008BB01000890
:10006000BB010008BB010008BB010008BB01000880
:10007000BB010008BB010008BB010008BB01000870
:10008000BB010008BB010008BB010008BB01000860
:10009000BB010008BB010008BB0100085F1200089B
:1000A000BB010008BB010008BB010008BB01000840
:1000B000BB010008BB010008A5360008BB01000811
:1000C000BB010008BB010008BB010008BB01000820
:1000D000BB010008BB010008BB010008BB01000810
:1000E000BB010008BB010008BB01000800F002F8DA
:1000F00000F047F80AA090E8000C82448344AAF17B
:100100000107DA4501D100F03CF8AFF2090EBAE878
:100110000F0013F0010F18BFFB1A43F0010318473B
:100120002458000044580000103A24BF78C878C111
:10013000FAD8520724BF30C830C144BF04680C60ED
:10014000704700000023002400250026103A28BF35
:1001500078C1FBD8520728BF30C148BF0B60704739
:10016000662905F02680002070471FB500F038FB97
:1001700004000020002104F0FDF9E0601FBD10B56F
:1001800010BD00F02DFC1146FFF7EFFF03F0F6FE67
:1001900000F04BFC03B4FFF7F2FF03BC00F08EFC51
:1001A0000948804709480047FEE7FEE7FEE7FEE70B
:1001B000FEE7FEE7FEE7FEE7FEE7FEE70448054947
:1001C000054A064B70470000A1360008ED00000804
:1001D0006003002060090020600500206005002009
:1001E0000FB41CB50C0007AA009001D02044401E9B
:1001F000074B7B4469460190069800F0D0FA002C2A
:1002000003D06946002000F0DDFA1CBC5DF814FB49
:10021000D90500002DE9F0474FF0000A8946044651
:10022000C0F820A02046E1688847002876D025281D
:1002300006D0D4E901219047206A401C2062F1E7F2
:10024000E168204600258847C4F81CA00646002720
:10025000C4F818A02A2E09D0304603F045FC38B364
:1002600004EB8708303EC8F8186019E059F8041B01
:10027000204604EB87029161E1688847012F06461A
:1002800018D1E069002820DA25F020051DE0D8F813
:10029000180000EB800006EB40003038C8F818006A
:1002A0002046E1688847064603F01EFC0028EED190
:1002B000012F0AD02E2E08D12046E16888477F1CE6
:1002C0000646022F45F02005C4DBA069002803DAAA
:1002D000404245F00105A061E80701D025F0100576
:1002E000B6B1A6F14100192802D8203645F40065C0
:1002F0004A463146204625604D46FFF731FF58B14A
:10030000012806D0ED1D25F0070000F1080989E756
:1003100004E005F1040985E730468AE7206ABDE874
:10032000F0874FF0000200B51346944696462039F8
:1003300022BFA0E80C50A0E80C50B1F12001BFF49E
:10034000F7AF090728BFA0E80C5048BF0CC05DF804
:1003500004EB890028BF40F8042B08BF704748BF52
:1003600020F8022B11F0804F18BF00F8012B7047C6
:1003700070477047704770472DE9FF4F0C461E4687
:100380004FF0FF378BB0D2E90001DDF860800A90B2
:100390008A46C1F30A5505B93D46002108464FF08B
:1003A0000000BAF1000F00F4400005DA00EB800015
:1003B0004FF4400101EA50004FEA9059B9F1010FA2
:1003C00000DDB9460A9850EA4A000ED044F61050B3
:1003D000A5F2FF3545432F14B8F1000F1ED075422A
:1003E000291E1EDDC9F100021CE0B8F1010F4FF01B
:1003F000000001D0302103E0F24305E02154401C0D
:10040000B042FBDB30460022002121540B99C1F899
:100410000880C1E900200FB0BDE8F08FBD1B6D1C46
:10042000DEE74A4600DA694206A800F063FA06AB46
:1004300093E8070003AB83E8070050460A9900F0F1
:1004400044FB8DE80700A0F500501F38009003988A
:10045000002D0ADD42F21F014A460844002303A989
:100460000390684600F0ADFD09E0A0F500504A4653
:100470001F38002303A90390684600F0B7FD8DE8FC
:1004800007000004000C03D04FF0FF30410800E0EB
:100490001046B8F1000F03D00022009215461EE06E
:1004A000751E05D400F0A0F9303262556D1EF9D5E5
:1004B000B3460122084302D000227F1C04E02078CA
:1004C000302801D100227F1E002A099784D01DE028
:1004D000112D07DA00F088F9303262556D1C50EAB0
:1004E0000102F5D1084302D00098C8B10EE0002106
:1004F000681E05E0235C625C63542254401E491C64
:100500008142F7DBAB46A81B401E0990002004F88F
:100510000B000B98099AC0F80880C0E9002B7AE715
:1005200011264FF0000857E72DE9F04F88460446A2
:10053000D21D22F0070191B0D1E90001CDE90A01F5
:1005400003F094FA02460B98C00F01D02D2007E06B
:100550002068810701D52B2002E0202101EAC0009C
:10056000032A099001D0072A05DB034641462046AD
:1005700000F080F90BE12078800601D5E06900E009
:100580000620B8F1650F814606D0B8F1660F18D085
:10059000B8F1670F70D131E00020B9F1110F009070
:1005A00001DB112301E009F101030AAA01A90CA84A
:1005B000FFF7E2FEDDE90C70002609F10105834634
:1005C00047E001204B4600904FF000470AAA01A9DE
:1005D0000CA8FFF7D1FEDDE90DB00C995D460026B1
:1005E00010B909F101000D18B9EB050003D4C0F1F1
:1005F000FF3609F10105A5EB09002BE0B9F1010F68
:1006000001DA4FF001090020B9F1110F00904846BE
:1006100001DD112300E003460AAA01A90CA8FFF797
:10062000ABFEDDE90C704D460026834620780007BE
:100630000AD4AB4500DA5D4601A8012D04DD41195D
:1006400011F8011C302907D04F4502DA17F1040FC9
:1006500004DA012082460FE06D1EEEE7002F02DC77
:10066000ED1B3E4403E0781CA84200DD7D1CB81B56
:1006700000F1010A4FF000472078000703D4AA4593
:1006800001DB4FF0FF3A0021B7F1004F0DF14308B5
:100690008DF8431024D002202B23002F01DA7F4253
:1006A0002D230A21021EA0F1010000DC5FB197FB9F
:1006B000F1FC97FBF1F201FB1C7C17460CF1300CAE
:1006C00008F801CDEEE7A8F10100037021880905C3
:1006D00001D5452100E06521A0F1010800F8011CC9
:1006E00009980FA9A1EB0807FF1D00B101204119CE
:1006F00001EBEA70A1693844081A401EA061207815
:10070000C00602D42046AFF30080099828B1D4E98E
:1007100001219047206A401C20622078C00622D523
:100720002046AFF300801EE0002E04DBB34502DD5F
:1007300001A8805D00E03020D4E901219047206AC3
:10074000401C2062761CAAF101005FEA000A0AD16F
:1007500000F046F8C0680168405CD4E90121904788
:10076000206A401C2062281EA5F10105DCDC07E0A0
:10077000D4E9012118F8010B9047206A401C20623F
:10078000381EA7F10107F3DC2046AFF300800320F9
:1007900011B041E601694A1C02610878704700B552
:1007A0008FB0CDE901310021059105497944CDE9AA
:1007B000031011466846FFF72DFD0FB000BD000085
:1007C000E5FFFFFF0A6802F8010B0A607047D1E9F4
:1007D00000239A4202D2531C0B6010707047000035
:1007E000004870472003002030B5B0F10A024FEAFC
:1007F000900E71F100034EEA817EB0EB0E0061EBCA
:1008000091014FEA101E4EEA017E10EB0E0041EB03
:1008100011114FEA102E4EEA016E10EB0E0041EB63
:1008200011214FEA104E4EEA014E10EB0E0041EB43
:100830001141401841F100014FEAD00040EA4170F7
:100840004FEAD10110EB80054FEA810444EA90742D
:1008500044EB01046D1944EB0404521BA3414FF017
:10086000000348BF0A3200D530BD401C41F10001F1
:1008700030BD00002DE9F0411F4604460326016803
:10088000072A01F4006004DB08B116A505E016A5EF
:1008900003E008B115A500E015A521F010002060C7
:1008A000A069C01EA0610FB1401EA0612046AFF339
:1008B00000804FB1D4E9012138469047206A401C9E
:1008C0002062C01C206206E0206AFAE7D4E9012118
:1008D00015F8010B9047761EF8D22046AFF3008042
:1008E000BDE8F0814E414E006E616E00494E4600FB
:1008F000696E66002DE9F047814616468AB0354894
:1009000078440DC88DE80D0032487844801C03AC53
:100910000DC884E80D0041F69B300844372190FB58
:10092000F1F290FBF1F5A5F1800501FB12041B3CEF
:1009300002D56442012000E00020DFF898A0804644
:100940000027FA44AAF1BE0A0EE0E0070AD03246B8
:10095000684607EB470101230AEB810100F046FBE3
:100960008DE8070064107F1C002CEED1194F7F44E6
:10097000AE3F19E0E80715D007EB04100DF1180A97
:1009800090E80E008AE80E00C068F04201D1981984
:1009900008903246012306A903A800F027FB03AB09
:1009A00083E807006D10641C002DE3D14FF00103B4
:1009B00032466946B8F1000F03A802D000F001FBEF
:1009C00001E000F013FBC9E90001C9F808200AB0F2
:1009D000BDE8F08728500000004870470003002061
:1009E0007546FFF7F9FFAE4605006946534620F00D
:1009F0000700854618B020B5FFF7E0FBBDE82040B2
:100A00004FF000064FF000074FF000084FF0000BCA
:100A100021F00701AC46ACE8C009ACE8C009ACE87D
:100A2000C009ACE8C0098D46704710B50446AFF365
:100A300000802046BDE81040FFF7ACBB4FF0013C02
:100A400050F8042B51F8043B9A4221D1A2EB0C033D
:100A5000934313EACC1317D150F8042B51F8043BFD
:100A60009A4215D1A2EB0C03934313EACC130BD19A
:100A700050F8042B51F8043B9A4209D1A2EB0C0325
:100A8000934313EACC13DBD04FF00000704700BF54
:100A9000D01A01BAB1FA81F101F0180122FA01F07D
:100AA000CB40C1F12001DBB2C0B2C01A2CFA01F375
:100AB000D11A914311EAC311E6D1704701491820B8
:100AC000ABBEFEE72600020070475FEA400C08BF9D
:100AD00091F0000F4FEA8C234FEAC12243EA5151B3
:100AE0004FEA1C5018BF00F5F0404FEA300018BF25
:100AF00041F000415FEA6C5C00F02980BCF1FF3FEF
:100B000008BF40F080407047130C06BF12044FF03E
:100B1000100C4FF0000C130E04BF12020CF1080C65
:100B2000130F04BF12010CF1040C930F04BF9200C9
:100B30000CF1020CD30F04BF52000CF1010C114652
:100B40004FF00002A0F11F00A0EB0C00704711F065
:100B5000004F08BF704731F000413FF4D5AF0B0C98
:100B600006BF09044FF0100C4FF0000C0B0E04BF31
:100B700009020CF1080C0B0F04BF09010CF1040C65
:100B80008B0F04BF89000CF1020CCB0F04BF49008E
:100B90000CF1010CCCF12003A0EB0C0022FA03F3C2
:100BA00002FA0CF241EA030100F10100704720F063
:100BB0007F4C80EA030023F07F47ACEB070303F58B
:100BC0007C5300F0004003F1FF032DE980494FEA18
:100BD000154B09B44FEA144325EA0B4E24EA0348A7
:100BE0000FF2042606EB132749083E785FEA32022B
:100BF00003FB0667C7F5000707FB06F64FEA543705
:100C00004FEAD64606F1020607FB066CCCF1005C03
:100C10004FEA1C472CEA074C07FB06F40CFB06F5D1
:100C200004EB15464FEA961634BF00204FF0004003
:100C30004FEAD13706FB07FC4FEA1C4C0CFB0BF7C5
:100C4000D21B03FB0CF761EB07010CFB0EF7B0EBBB
:100C5000074072EB17420CFB08F734BFA2EB0742C8
:100C6000B2EB074261EB17414FEA0C444FEA9107A0
:100C700006FB07FC4FEA1C4C0CFB0BF7B0EBC74024
:100C800072EB573203FB0CF734BFA2EBC742B2EB57
:100C9000C74261EB57310CFB0EF7B0EBC70072EBAC
:100CA00057720CFB08F734BFA2EBC702B2EBC702C6
:100CB00061EB5771039F4FEA816141EA921104EBA6
:100CC000CC044FEAD1374FEA826206FB07FC42EAC6
:100CD00090124FEA80604FEA1C4C0CFB0BF7D21BC2
:100CE00003FB0CF761EB07010CFB0EF7B0EB0740C1
:100CF00072EB17420CFB08F734BFA2EB0742B2EBD2
:100D0000074261EB17414FEA8C554FEA910704EB1C
:100D10009C2406FB07FC4FEA1C4C0CFB0BF7B0EBCA
:100D2000C74072EB573203FB0CF734BFA2EBC7424C
:100D3000B2EBC74261EB57310CFB0EF7B0EBC700CB
:100D400072EB57720CFB08F734BFA2EBC702B2EB91
:100D5000C70261EB577115EB4C254FEA816141EAFF
:100D600092114FEA82624FEAD13742EA901206FBB3
:100D700007FC44F100044FEA80604FEA1C4C0CFB76
:100D80000BF7D21B03FB0CF761EB07010CFB0EF713
:100D9000B0EB074072EB17420CFB08F734BFA2EB35
:100DA0000742B2EB074261EB174115EB1C154FEA06
:100DB000813141EA92414FEA823242EA90424FEA5F
:100DC00080304FEA0C7644F1000448EA03434EEACF
:100DD0000B484FF0000EB2EB080C71EB030724BF79
:100DE000624639464EEB0E0E4FF0000B0018524192
:100DF00049414BEB0B0BB2EB080C71EB03077BF19A
:100E0000000B24BF624639464EEB0E0E4FF0000B2E
:100E10000018524149414BEB0B0BB2EB080C71EB44
:100E200003077BF1000B24BF624639464EEB0E0EE2
:100E300051EA020718BF46F0010616EB0E7655F18F
:100E4000000254F1000103D5BDE88901BDE8008826
:100E5000BDE88901BDE80048B619524141EB0101E6
:100E6000A3F10103704780807F7E7D7C7B7A797857
:100E7000777676757473727171706F6E6E6D6C6C5F
:100E80006B6A6A6968686766666564646363626101
:100E90006160605F5F5E5E5D5D5C5C5B5B5A5A5982
:100EA00059585857575656555555545453535252EE
:100EB0005251515050504F4F4F4E4E4D4D4D4C4C46
:100EC0004C4B4B4B4A4A4A4949494848484747478F
:100ED00047464646454545444444444343434342CC
:100EE000424242414141002B9C4630D477002BD0F6
:100EF0001CB54FEA370703B44FF010004FF0100154
:100F0000BAF1000F06D0BCF1000FDCBF40F00800C2
:100F100040F008014FF000000FBCBDE810400BF19D
:100F2000010BBBF1010F08BF5FEA170722BF12F1E7
:100F3000010211F101014FF0004143F1000300F003
:100F4000004043EA00007047F9D35708D0E746EA6B
:100F5000064613F1400F4FEA16461FDD13F1200F2E
:100F6000DFBF16430A46002120335B42BED0C3F1E7
:100F7000200746EA064602FA07F74FEA164646EA0F
:100F80000706C3F1200722FA03F201FA07F721FA54
:100F900003F14FF0000342EA0702A7E746EA020620
:100FA00046EA06464FEA164646EA0106BCBF46EA4E
:100FB0000646360C4FF000034FF000024FF00001E0
:100FC00094E72DE9804C9A46934670B491E8380036
:100FD00007C831EA400C48BF34EA430C03D5FFF799
:100FE000E6FDFFF780FFF0BCBDE8008C2DE9804CEA
:100FF0009A46934670B491E8380007C810F0804FC5
:1010000008BF13F0804F03D100F005F8FFF76BFF26
:10101000F0BCBDE8008C20F07F4780EA030023F09D
:101020007F4C07EB0C03A3F57C5300F00040A3F1C9
:10103000FE0392F0000F00F0B38095F0000F00F077
:1010400077802DE901494FEA11404FEA144621EA21
:10105000004800FB06FC24EA064708FB06F607FBEF
:1010600008F800FB07F718EB06484CEB164C4FEA64
:10107000124B18EB07484FEA15464CEB174022EA93
:101080000B4E0BFB06FC25EA06470EFB06F607FB9C
:101090000EFE0BFB07F71EEB064E4CEB164C4FF00B
:1010A00000061EEB074E4CEB174B18EB0B0840F1FC
:1010B000000018EB0E0B58EB000840F100008F1AEF
:1010C0004FF000013CBFC943661B14BFB5EB040CD5
:1010D00000213CBFC943F61B4FEA17444EEA8E0E6F
:1010E00027EA04454FEA1C4704FB07622CEA074C39
:1010F00005FB07F70CFB05F604FB0CFC16EB07469B
:1011000042EB174216EB0C4642EB1C421BEB060669
:1011100058EB0202414146EA9E0601D5BDE801892D
:10112000B619524141EB0101A3F10103BDE8018968
:101130004FEA14454FEA114724EA054621EA074CD5
:1011400005FB07F406FB07F70CFB06F105FB0CFC9F
:1011500011EB074144EB17444FEA124711EB0C41E6
:1011600044EB1C4422EA074C05FB07F206FB07F799
:101170000CFB06F605FB0CFC16EB074642EB174290
:1011800016EB0C4642EB1C456A1854F1000148BFAF
:101190007047B619524141EB0101A3F101037047B9
:1011A00095F0000F37D04FEA11424FEA144721EA79
:1011B000024624EA074C02FB07F106FB07F70CFB8B
:1011C00006F402FB0CFC14EB074441EB17414FEA19
:1011D000154714EB0C4441EB1C4125EA074C02FB7C
:1011E00007F506FB07F70CFB06F602FB0CFC16EBFB
:1011F000074645EB174516EB0C4645EB1C4212190A
:1012000051F1000148BF7047B619524141EB01014D
:10121000A3F1010370474FEA14454FEA114724EA4E
:10122000054621EA074C05FB07F106FB07F70CFB17
:1012300006F24FF0000605FB0CFC12EB074241EBF7
:10124000174112EB0C4251EB1C4148BF70479218FA
:1012500041EB0101A3F101037047FEE77047202035
:1012600000F016B872B6FEE770B5044600F016F945
:101270000546601C02D004480078044400F00EF9D2
:10128000401BA042FAD370BD04000020704700004C
:10129000044910B50A68024202D00860FFF7F6FF61
:1012A00010BD0000140401402DE9F84FDFF8B8919B
:1012B0000024A9F1040B23460F2709F1040AABF11E
:1012C000040EC9E00125A5402A40AA427DD1674EFF
:1012D000D1F804C0ACEB0608B44532D014DCBCF144
:1012E000030F3AD009DCBCF1000F2AD0BCF1010F8A
:1012F0001CD0BCF1020F31D11DE0BCF1110F17D091
:10130000BCF1120F2AD119E0B8F5881F19D006DCFC
:10131000B8F5803F15D0B8F5801F1FD111E0B8F5A2
:10132000001F0ED0B8F5041F18D10AE0CB6815E0F5
:10133000CB681B1D12E0CB6808330FE0CB680C3381
:101340000CE08B682BB1012B4FF0080303D04561F3
:1013500004E0042302E0056100E00023FF2A01D835
:10136000064601E000F104064FEA840501D9A5F123
:101370002005D6F8008007FA05FC28EA0C0803FAD5
:1013800005F548EA0508C6F800804D68ED0062D50D
:10139000374DAE6946F00106AE61AD6924F0030633
:1013A00005F001050095334D06EB050CDCF80850FF
:1013B000A607360F07FA06F825EA0805DFF8B88011
:1013C000404503D14FF0000817E044E0DFF8AC805F
:1013D000404502D14FF001080FE0DFF8A4804045FE
:1013E00002D14FF0020808E0DFF89880404502D1B2
:1013F0004FF0030801E04FF0040808FA06F848EA45
:101400000508CCF808804D68D9F80060ED024D461B
:1014100001D5164300E096432E604D68DAF800606F
:10142000AD02554601D5164300E096432E604D6847
:10143000DBF80060AD035D4601D5164300E096433E
:101440002E604D68DEF80060ED03754601D5164349
:1014500000E096432E60641C0D682A46E5407FF448
:1014600031AFBDE8F88F0000080401400000111002
:10147000001002400000014000080140000C014043
:1014800000100140001401408068084000D0012095
:1014900070470AB1016170470904FBE701488068A1
:1014A000704700000400002070B5040025D094F8B7
:1014B0003D00002520B984F83C50204600F07EFA1B
:1014C000242084F83D002068016821F001010160BA
:1014D0002068016841F4004101602068016821F43E
:1014E0000041016000F0C8FB4D4A6168914201D89B
:1014F0004C4900E04C49884201D2012070BD4B4963
:101500002368B0FBF1F15E6826F03F060E435E6093
:101510006368934206D94FF4967359434FF47A7334
:10152000B1FBF3F12368491C1E6A26F03F063143E4
:1015300019626168914210D84900401EB0FBF1F277
:10154000521CC2F30B02042A01D2042022E0B0FB99
:10155000F1F0401CC0F30B001CE0A268F2B301EBF9
:10156000C10303EB0116431EB3FBF6F35B1C43F40C
:1015700080431B0549D092B301EBC10202EB01117C
:10158000401EB0FBF1F0401CC0F30B0040F4804063
:1015900040F400402168CA694CF6FF739A43104337
:1015A000C861D4E9071001432068026822F0C00234
:1015B00011430160D4E9030101432068826848F2C5
:1015C000FF339A4311438160D4E905010843216840
:1015D000CA6822F0FF021043C86001E00EE016E086
:1015E0002068016841F0010101602564202084F831
:1015F0003D00256384F83E50002070BD01EB41069C
:10160000431EB3FBF6F35B1CB3E70120C2E701EB1B
:101610004101401EB0FBF1F0401CC0F30B00B7E7E6
:10162000A086010080841E0000093D0040420F009A
:101630002DE9FF4F83B00025DDE910799A469346E6
:101640000446DDF848800095FFF728FF064694F829
:101650003D0020287CD1192301228849204600968C
:1016600001F002FB0028F5D194F83C0001286FD06E
:10167000012084F83C0020680168C90703D1016893
:1016800041F0010101602068016821F400610160FE
:10169000222084F83D00402084F83E0025646762E3
:1016A000A4F82A90608D20857548E062CDE9008617
:1016B00053465A462046049901F0D8F900287CD1B7
:1016C000208DDFF8C091202768B1012814D00228AE
:1016D000206801681ED041F4806101602068416982
:1016E00080690090BCE020684169816900910168CF
:1016F00041F400710160B3E02068016821F4806169
:10170000016072B62068416981690091016841F405
:1017100000710AE041F40061016072B6206841691D
:1017200081690091016821F48061016062B697E0EF
:10173000032865D801280CD0022843464FF0000248
:101740004946204600960BD001F08EFAA8BB0CE06B
:1017500091E032464146204601F02CFB68BB72E026
:1017600001F082FA48BB72B633E02068016821F4C8
:101770008061016072B620680069616A0870606A01
:10178000401C6062208D401E2085608D401E60855B
:101790003D4846F2A8110068B0FBF1F0C0EBC00074
:1017A00000EB80000090401E009007D02068406948
:1017B000C04340070DD50098F5E727E044F8305FB7
:1017C0006773A573206940F02000206162B625731D
:1017D0001CE02068016841F4007101602068006924
:1017E000616A0870606A401C6062218D491E218513
:1017F000618D491E618562B621680969017026E024
:1018000032464146204601F0D5FA18B1012007B012
:10181000BDE8F08F20680069616A0870606A401C4A
:101820006062208D401E81B22185608D401E6085E2
:1018300020684269D243520712D4032903D10168B8
:1018400021F48061016020680069616A0870606A43
:10185000401C6062208D401E2085608D401E60858A
:10186000208D00287FF464AF84F83D7084F83E50EA
:1018700084F83C50CBE70220C9E7000002001000CA
:101880000000FFFF04000100100000202DE9FF4FC1
:1018900083B09A46DDE9119793460446DDF840800F
:1018A000FFF7FCFD054694F83D0020287FD1192361
:1018B000012240492046009501F0D6F9002876D152
:1018C00094F83C00012872D0012084F83C00206884
:1018D0000168C90703D1016841F001010160206876
:1018E000016821F400610160212084F83D0040205E
:1018F00084F83E0000262664C4F82480A4F82A90C8
:10190000608D20852C48E062CDE9007553465A462B
:101910002046049901F028F970B930E02A4639468A
:10192000204601F07FFA58B1206C042804D12068C9
:10193000016841F400710160012007B0BDE8F08F3B
:10194000606A216800780861606A401C6062218DCD
:10195000491E89B22185628D521E628522685369B3
:10196000DB435B070BD469B100781061606A401CEF
:101970006062208D401E2085608D401E6085208D18
:101980000028CBD12A463946204601F041F90028EB
:10199000CAD154F83D0B016841F400710160202068
:1019A00004F81E09E67766770020C6E7FFE7022005
:1019B000C3E70000020010000000FFFF10B586B072
:1019C0000021009101910291039100681049884221
:1019D0001BD1104CA06940F00800A061A0696946C5
:1019E00000F0080004904FF4406000901220019035
:1019F000032003900848FFF757FCE06940F480009B
:101A0000E061E06900F48000049006B010BD0000C1
:101A10000058004000100240000C0140024881685C
:101A2000027811448160704704000020074810B517
:101A3000016841F010010160032000F075F80F20EB
:101A400000F006F800F024F8002010BD002002404D
:101A500070B50D4D04464FF47A712878B1FBF0F063
:101A60000A490968B1FBF0F000F0DCFA48B9102C23
:101A700007D200222146501E00F036F800206C608C
:101A800070BD012070BD0000040000201000002087
:101A90000C4808B5816941F001018161816901F05B
:101AA00001010091C16941F08051C161C06900F03C
:101AB000805000900448416821F0E06141F00071DD
:101AC000416008BD0010024000000140002809DB11
:101AD00000F01F02012191404009800000F1E02048
:101AE000C0F8001170470000F0B40E4B1B680C46A4
:101AF000C3F30223C3F10705042D00D90425191DE2
:101B0000072901D2002300E0DB1E012606FA05F1B9
:101B1000491E214099409E40761E16403143F0BC3C
:101B200001F0CBBF0CED00E0064900F007020868A9
:101B30004FF6FF03184040EA0220034A10430860B2
:101B4000704700000CED00E00000FA052DE9F047B9
:101B50000F46050061D0434E306800F00700B842E0
:101B600009D2306820F0070038433060306800F058
:101B70000700B84251D128683B4C810712D5400775
:101B800003D5606840F4E06060602878000703D502
:101B9000606840F4605060606068A96820F0F00000
:101BA000084360602878C00728D06868012810D0F2
:101BB0002168022810D0890700292EDA616821F0F7
:101BC000030101436160FFF769FC804641F28839F7
:101BD0000DE021688903EFE78901EDE7FFF75EFC7F
:101BE000A0EB0801494502D90320BDE8F0876068F1
:101BF000696800F00C00B0EB810FEFD1306800F0A5
:101C00000700B8420BD9306820F007003843306035
:101C1000306800F00700B84201D00120E5E72878DD
:101C2000400705D56068E96820F4E060084360601B
:101C30002878000706D56068296920F4605040EADA
:101C4000C100606000F038F86168084AC1F3031110
:101C5000515CC8400649086006480068FFF7F8FE76
:101C60000020C2E70020024000100240A8520008F5
:101C70001000002008000020044805490068496859
:101C8000044AC1F30221515CC84070471000002093
:101C900000100240B852000804480549006849682D
:101CA000044AC1F3C221515CC840704710000020B3
:101CB00000100240B85200080E4A51680E4801F068
:101CC0000C03042B11D0082B0FD10C48C1F3834314
:101CD000C903C05C0AD55168084AC1F34041921E4D
:101CE000515C054A5043B0FBF1F07047044948434A
:101CF000704700000010024000127A00985200085D
:101D000000093D002DE9F84F040070D02078C04D47
:101D1000C00749D06868C0F38100012807D068680F
:101D2000C0F38100022809D16868C00306D528687D
:101D3000800339D560680028E7D035E06068B0F5E9
:101D4000803F0BD010B1B0F5A02F11D0286820F43F
:101D500080302860286820F4802002E0286840F461
:101D600080302860606890B1FFF798FB06460AE073
:101D7000286840F480202860F0E700BFFFF78EFB62
:101D8000801B642873D828688003F7D50CE0FFF720
:101D900085FB064605E000BFFFF780FB801B64283B
:101DA000F0D828688003F7D420789A4E80074FF047
:101DB00001094FF0000839D5686810F00C0F07D002
:101DC0006868C0F38100022809D16868C00306D49E
:101DD0002868800714D52069012808D110E02069FF
:101DE000B0B1C6F80090FFF759FB074605E00AE1DD
:101DF000FFF754FBC01B0228C4D828688007F7D51A
:101E00002868616920F0F80040EAC10028600DE010
:101E1000C6F80080FFF742FB074604E0FFF73EFBF1
:101E2000C01B022823D828688007F7D42078000731
:101E30002CD57948A169D9B1C0F80090FFF72EFBE5
:101E4000074604E0FFF72AFBC01B02280FD8686A88
:101E50008007F7D571484FF4FA510068B0FBF1F0F4
:101E6000009000BF0098411E0091FAD20EE080E081
:101E7000C0F80080FFF712FB074604E0FFF70EFBF7
:101E8000C01B022875D8686A8007F7D420784007FD
:101E900060D5E8690027C00008D4E86940F08050A8
:101EA000E861E869012700F0805000905C48016813
:101EB000C90513D40168834641F480710160FFF7BE
:101EC000EDFA824606E000BFFFF7E8FAA0EB0A0051
:101ED00064284ED8DBF80000C005F5D5E06801287D
:101EE0000AD008B1052813D0286A20F00100286222
:101EF000286A20F0040002E0286A40F0010028620D
:101F0000E06841F2883B98B1FFF7C8FA82460BE0DF
:101F1000286A40F004002862EEE700BFFFF7BEFA2F
:101F2000A0EB0A0159455AD8286A8007F6D50CE07B
:101F3000FFF7B4FA824605E0FFF7B0FAA0EB0A011A
:101F400059454CD8286A8007F6D41FB1E86920F0BB
:101F50008050E861E06988B36968C1F381010229B2
:101F600044D00228C6F8608004D0FFF797FA0446F0
:101F700038E034E0FFF792FA074604E0FFF78EFA04
:101F8000C01B02282BD828688001F7D4206AB0F53E
:101F9000803F05D16868A16820F40030084368607C
:101FA000D4E908010843696821F4741108436860A2
:101FB000C6F86090FFF772FA044606E025E000BF1D
:101FC000FFF76CFA001B022809D828688001F7D5B2
:101FD0001BE000BFFFF762FA001B022802D90320B2
:101FE000BDE8F88F28688001F4D40EE00128F7D00E
:101FF0006868226A00F48031914204D1616A00F479
:102000007010884201D00120EAE70020E8E70000D4
:1020100000100240000042428004424210000020B2
:102020000070004010B5401EB0F1807F01D3012048
:1020300010BD4FF0E02460610F21601701F03DFDFD
:102040000020A06107202061002010BD704770476C
:1020500010B590F83C20012A22D0012280F83C20C3
:10206000CA688C6822F4407222434C6822F4806271
:1020700022430C6822F4006222430C6922F480524D
:1020800022434C6922F400522243C969002322F4FE
:1020900080420A4301684A6480F83C30002010BD49
:1020A000022010BD70B590F83C20012A26D00124F2
:1020B00080F83C40022280F83D2003685A689D6801
:1020C00022F070060A6832435A600D4B02689A4249
:1020D00008D0B2F1804F05D00A4B9A4202D00A4B89
:1020E0009A4204D1496825F080031943916080F831
:1020F0003D40002180F83C10084670BD022070BDB4
:10210000002C0140000400400008004010B504000D
:1021100003D094F83D0010B107E0012010BD00206D
:1021200084F83C00204600F01FF8022084F83D00AF
:10213000211D206801F0BCFA012084F8460084F8D3
:102140003E0084F83F0084F8400084F8410084F8A1
:10215000420084F8430084F8440084F8450084F881
:102160003D00002010BD000008B5114A016811486B
:10217000914208D1816941F400618161806900F474
:102180000060009008BD0C4A9142FBD1C16941F04A
:102190000401C161C069002200F0040000901146F2
:1021A0001E20FFF7A1FCBDE808401E20FFF78EBCF3
:1021B000002C0140001002400008004090F83D1043
:1021C000012901D001207047022180F83D100168EB
:1021D000CA6842F00102CA6000680B49884208D010
:1021E000B0F1804F05D00949884202D008498842A1
:1021F00004D1816801F00701062903D0016841F08C
:102200000101016000207047002C014000040040E3
:102210000008004070B5044690F83C0000250128F5
:1022200017D0012684F83C60022084F83D00206825
:10223000826822F0770222F47F4282600868502888
:1022400038D00DDC20284FD005DC90B3102811D1F8
:102250004AE0022070BD302846D040280AD13BE039
:1022600060282FD070280DD0B0F5805F03D0B0F576
:10227000005F12D0012584F83D60002084F83C0006
:10228000284670BDCB68D1E90121206801F059FAD8
:102290002068816841F0770109E0CB68D1E901212C
:1022A000206801F04EFA2068816841F48041816025
:1022B000E1E719E0CA684968206801F0F7FA50219F
:1022C000206806E0CA684968206801F000FB6021C8
:1022D000206801F040FACEE7CA684968206801F03A
:1022E000E5FA40212068F4E7226801461046F0E74D
:1022F0002DE9F0410D46040003D094F83D0018B1DB
:1023000008E00120BDE8F081002084F83C00204670
:1023100000F040F8022084F83D002068816844F213
:10232000070291438160211D206801F0C1F92268F4
:1023300090689169166A2B68AF69034340F20330D5
:10234000814341EA0721A868EF6908434FF6FC4141
:102350008843E96840EA0720014328692F6A0001A1
:1023600040EA0730084369686D6926F0220646EAAC
:102370000515294393602268906154F8460B016269
:10238000012004F81F09E0752076E0762077A0751B
:102390000020B7E700B585B00021009101910291BE
:1023A0000391026818491948B2F1804F19D0184BAF
:1023B0009A4214D1CA6942F00202CA61CA6902F0A3
:1023C000020204928A6942F004028A61896901F07A
:1023D00004010491C02100916946FEF765FF05B034
:1023E00000BDCA6942F00102CA61CA6902F0010275
:1023F00004928A6942F004028A61896901F0040149
:1024000004910321E7E700000010024000080140AA
:102410000004004070B590F83E60044690F83F50CC
:1024200090F8423090F84320022021B104290ED0C8
:10243000012E1BD114E0012E18D1012B16D184F8E6
:102440003E0084F8420001220021206820E0012D96
:102450000CD1012A0AD184F83F0084F8430014E02B
:10246000012D03D1012B01D1012A01D0012070BD22
:1024700084F83E0084F83F0084F8420084F843006A
:1024800001220021206801F04FF901220421206877
:1024900001F04AF92068016841F001010160002063
:1024A00070BD70472DE9F04104460068C6680569B3
:1024B0004FF00007A90713D5B10711D5F91E016127
:1024C00001202077206880698007204602D0FFF72E
:1024D000E8FF04E000F0A4F8204600F036F9277782
:1024E000680716D5700714D521686FF004000861DD
:1024F000022020772068806910F4407F204602D0B7
:10250000FFF7CFFF04E000F08BF8204600F01DF944
:102510002777280715D5300713D521686FF00800F5
:102520000861042020772068C0698007204602D017
:10253000FFF7B7FF04E000F073F8204600F005F95C
:102540002777E80616D5F00614D521686FF010003D
:102550000861082020772068C06910F4407F204679
:1025600002D0FFF79EFF04E000F05AF8204600F08A
:10257000ECF82777E80708D0F00706D021686FF05D
:1025800001000861204600F02FF9280608D5300622
:1025900006D521686FF0800008612046FFF756FDE0
:1025A000680608D5700606D521686FF040000861FE
:1025B000204600F02BF9A8060AD5B00608D52168F8
:1025C0006FF0200008612046BDE8F041FFF73FBDF5
:1025D000BDE8F08100B585B0002100910191029124
:1025E000039100680B49884212D10B48816941F080
:1025F000040181618069694600F0040004904FF491
:10260000407000900220019003900448FEF74CFEB9
:1026100005B000BD002C0140001002400008014040
:10262000704770B5044690F83C0000260D4601281E
:102630000FD0012084F83C006AB1042A1DD0082A7A
:102640002FD00C2A3FD00126002084F83C003046D1
:1026500070BD022070BD206801F086F82068816995
:1026600041F0080181612068816921F004018161E4
:10267000206881692A69114311E0206801F09CF803
:102680002068816941F4006181612068816921F4D9
:1026900080618161206881692A6941EA0221816142
:1026A000D2E7206801F0B4F82068C16941F0080160
:1026B000C1612068C16921F00401C1612068C1695C
:1026C0002A69114311E0206801F0CEF82068C16941
:1026D00041F40061C1612068C16921F48061C16178
:1026E0002068C1692A6941EA0221C161ACE710B5DD
:1026F000040003D094F83D0010B107E0012010BDA4
:10270000002084F83C00204600F01EF8022084F8E7
:102710003D00211D206800F0CBFF012084F8460019
:1027200084F83E0084F83F0084F8400084F84100BB
:1027300084F8420084F8430084F8440084F845009B
:1027400084F83D00002010BD7047704710B5044666
:10275000022249B104290ED0082913D094F841006F
:10276000012816D0012010BD94F83E000128F9D1AF
:1027700084F83E200FE094F83F000128F2D184F85D
:102780003F2008E094F840000128EBD184F8402075
:1027900001E084F841200122206800F0C5FF0F49C4
:1027A0002068884203D1426C42F4004242642068AF
:1027B000884208D0B0F1804F05D00949884202D044
:1027C0000849884204D1816801F00701062903D035
:1027D000016841F001010160002010BD002C0140A2
:1027E000000400400008004010B500680549884218
:1027F00007D101F05BFD01F06BFB0349012008707C
:10280000487010BD0008004000000020704770B5FF
:10281000040004D094F84100002510B106E0012026
:1028200070BD84F84050204600F024F8242084F83D
:1028300041002068C16821F40051C160204601F0C8
:102840007FF82068016921F49041016120684169A5
:1028500021F02A0141612068C16841F40051C16042
:102860006564202084F8410084F8420065630020FC
:1028700070BD000030B585B000240094019402942E
:1028800003940068174988422AD11748816941F4A6
:1028900080418161816901F480410491816941F045
:1028A000080181618069114D00F00800049040200A
:1028B0000090022001900320039069462846FEF70D
:1028C000F3FC8020CDE90004694628460294FEF717
:1028D000EBFC0748416841F0E06141F004014160D0
:1028E00005B030BD0038014000100240000C01402E
:1028F000000001402DE9F843044690F84100984655
:1029000016460D46202802D00220BDE8F88385B186
:102910007EB100206064212084F84100FEF7BEFDF6
:10292000A6848146E684A0682027B0F5805F02D0A7
:1029300003E00120E9E7206910B12E4600250EE0F2
:1029400000260CE08021204601F056F8A8B9C6B157
:1029500016F8010B21684860E08C401EE084E08C92
:102960004B464FF00002CDF800800028EAD14FF02E
:102970004001204601F040F840B184F84170032046
:10298000C3E735F8020BC0F30800E3E784F84170B1
:102990000020BAE77CB514460D4606460622694675
:1029A000032000F02BF808B101207CBDBDF8000029
:1029B00040BA3080BDF8020040BA2080BDF8040063
:1029C00040BA288000207CBD10B56420FEF74CFC86
:1029D0007821002000F020F848B92021012000F0E3
:1029E0001BF820B90021022000F016F808B10120E0
:1029F00010BD1420FEF738FC002010BD0EB50A23D0
:102A00008DE80E00024601233C210248FEF710FE2D
:102A10000EBD00007800002003B583B00A23012218
:102A200004A98DE80E00134602463C210248FEF739
:102A30002DFF05B000BD000078000020FEE7016812
:102A40004A69D24352050FD46FF480624A61002173
:102A500040F8301F202242738173026942F0040261
:102A60000261017301207047002070472DE9F84F83
:102A70000446006889460B9D01689846174641F454
:102A8000806101602068016841F4807101600095F7
:102A90004FF0011B0022594620460A9B00F0E4F843
:102AA0004FF4007A40B120680068C00501D5C4F831
:102AB00040A00320BDE8F88F216809F0FE000861FE
:102AC0002B46284920460A9A00F016F9F0BB2068E8
:102AD0004169806900902A4620460A9900F0A2F9CF
:102AE00040B1206C04283AD12068016841F400719B
:102AF000016034E0FEB2B8F1010F09D02168380A54
:102B000008612A4620460A9900F08CF90028E8D18D
:102B1000206806612A4620460A9900F083F90028B9
:102B2000DFD12068016841F48071016000950022C6
:102B3000594620460A9B00F097F80028B3D1216837
:102B400009F0FF0040F00100086100E007E02B46BB
:102B5000044920460A9A00F0CFF80028AAD00120A4
:102B6000A8E70000020001002DE9F84304460068D0
:102B70000D46DDE9089701689846164641F48071D4
:102B800001604B4600224FF001112046009700F0F3
:102B90006BF848B120680068C00502D54FF400709A
:102BA00020640320BDE8F883216805F0FE00086179
:102BB0003B464A461549204600F09EF888B92068F1
:102BC0004169806900903A464946204600F02AF95A
:102BD00048B1206C042804D12068016841F40071D8
:102BE00001600120DEE7F5B2B8F1010F09D02168DC
:102BF000300A08613A464946204600F013F9002899
:102C0000E7D1206805610020CCE700000200010048
:102C100070B516460D4604461EE02046FFF70FFF2E
:102C200008B1012070BD681C16D0FEF737FC801B70
:102C3000A84200D885B920684069C04340070BD539
:102C4000002044F8300F20216173A073216941F006
:102C5000200121612073E4E720684069C0434007F8
:102C6000DBD4002070BD00002DE9F04798461746E0
:102C70000D460446C1F30746DDF820902AE000BF68
:102C8000B8F1FF3F26D0FEF709FCA0EB0901414552
:102C900002D8B8F1000F1DD12068012E16D080692E
:102CA00025EA00000004000C12D00020B84211D127
:102CB000002044F8300F20216173A073216941F096
:102CC0002001216120730120BDE8F0874069E7E71A
:102CD0000120EBE72068012E0AD0806925EA000078
:102CE0000004000C06D00020B842C9D00020EBE759
:102CF0004069F3E70120F7E72DE9F04798461646CB
:102D00000D4604464FF000094FF0200AC1F3074773
:102D100023E020684069C043400515D4206801685D
:102D200041F40071016021686FF480604861C4F86B
:102D3000309084F83DA084F83E90216C41F004016D
:102D4000216484F83C9021E0701C06D0FEF7A6FBBD
:102D5000A0EB0800B04203D816B1012F1FD021E02C
:102D60002068012F15D0806925EA00000004000CBE
:102D700018D000BF44F8309F84F80DA084F80E905E
:102D8000216941F02001216184F80C900120BDE807
:102D9000F087406925EA00000004000CEAD12068B1
:102DA000406901E02068806925EA00000004000C09
:102DB000AFD1ECE72DE9F041002590460E460446E0
:102DC000202728E04069C043C0060CD454F8301BCB
:102DD0006FF01000486144F810596777A577206AB2
:102DE0002062257714E0FEF759FBA0EB0800B04203
:102DF00000D886B920684069C04340060BD544F826
:102E0000305F6773A573206940F02000206125734F
:102E10000120BDE8F08120684169C9434906D1D449
:102E20000020F6E770B516460D4604461EE0204623
:102E3000FFF705FE08B1012070BD681C16D0FEF733
:102E40002DFB801BA84200D885B920684069C0438B
:102E500000060BD5002044F8300F20216173A073C9
:102E6000216941F0200121612073E4E72068406975
:102E7000C0430006DBD4002070BD00001FB50E2249
:102E800069463B2000F022F810B1012004B010BDCB
:102E9000BDF8000041BA0C480180BDF8021049BAE3
:102EA0004180BDF8041049BA8180BDF8081049BAC4
:102EB000C180BDF80A1049BA0181BDF80C1049BAA9
:102EC00041810020E2E70000300000200EB56423BD
:102ED0008DE80E0002460123D0210248FEF7A8FB30
:102EE0000EBD0000780000202DE9F04786B00024D8
:102EF00045480094019402940394816941F01001C3
:102F00008161816901F010010491816941F0200122
:102F10008161816901F020010491816941F004011E
:102F20008161816901F004010491816941F0080126
:102F300081618069DFF8D48000F008004FF400550B
:102F40000490002229464046FEF7A3FADFF8C0A00D
:102F500000224FF473415046FEF79BFA0122DFF83E
:102F6000B490970239464846FEF793FA0095022638
:102F700001250396CDE9015469464046FEF794F9D0
:102F800041F63C00CDE90004694648460294FEF74C
:102F90008BF91920CDE90004694650460294FEF7EA
:102FA00083F94FF47040CDE90005CDE9025669463A
:102FB0005046FEF779F9CDE90075CDE9025669462C
:102FC0004846FEF771F9202000901348CDE901042E
:102FD00069465046FEF768F94FF4407000901120A2
:102FE000CDE901040320039069465046FEF75CF9E1
:102FF000002211461720FEF777FD1720FEF766FD29
:1030000006B0BDE8F087000000100240001001404B
:10301000000C014000080140000011100D4810B5DF
:103020000B4901600C49416000214FF480428160EE
:10303000C0E9031241618161C1610162FEF734FAA6
:10304000002803D0BDE81040FEF70CB910BD000009
:103050000058004078000020A086010030B595B0EF
:1030600000240F9410941194129413941C21684618
:103070001494FDF756F9202107A8FDF752F9304DB9
:103080002E48C5E9000449F63F40C5E902408020CA
:103090002C61C5E905402846FFF738F808B1FEF76E
:1030A000E1F84FF480500F900FA92548FFF7B2F8D0
:1030B00008B1FEF7D7F82248FFF719FB08B1FEF771
:1030C000D1F8139413A91E481494FEF7EBFF08B12E
:1030D000FEF7C8F8602000904FF4FA70CDE90104C3
:1030E0000394049405940022694615480694FFF75A
:1030F00098FA08B1FEF7B6F82868816921F008014E
:103100008161042269460E48FFF78BFA08B1FEF789
:10311000A9F80794089409944FF400500A94CDE953
:103120000B4007A906480E94FEF792FF08B1FEF780
:1031300099F80348FFF74EFA15B030BD002C014056
:10314000CC00002010B58CB024216846FDF7E9F8CA
:103150000024154809944FF080410A94C0E90014F6
:103160004FF6FF71C0E90241046184610320CDE99B
:1031700000040120CDE902040494CDE90540079440
:10318000694609480894FFF7B3F808B1FEF76AF8F2
:10319000099409A904480A94FEF784FF002801D085
:1031A000FEF760F80CB010BD1401002010B58CB013
:1031B00024216846FDF7B5F80024164809941449FF
:1031C0000A94C0E900144FF6FF71C0E9024104619E
:1031D00084610320CDE900040120CDE902040494B8
:1031E000CDE90540079469460A480894FFF780F83E
:1031F00008B1FEF737F8099409A906480A94FEF7C2
:1032000051FF002801D0FEF72DF80CB010BD0000D2
:10321000000400405C01002010B586B0002417486F
:10322000009401940294039404941349059401605A
:103230004F21C0E9011442F20F71C0E9031480214B
:103240008161FEF763FF08B1FEF70CF84FF4805080
:10325000009069460948FEF7DDFF08B1FEF702F865
:10326000049404A905480594FEF71CFF002801D02A
:10327000FDF7F8FF06B010BD00080040A4010020D3
:103280000C4810B50A4901604FF416514160002105
:1032900081600C22C160C0E904128161C161FFF745
:1032A000B6FA002803D0BDE81040FDF7DBBF10BD23
:1032B00000380140EC010020FEE7000070B50C0072
:1032C000054610D05FF00002084E4FF480513046A2
:1032D000FEF7DFF8224671143046FEF7DAF80448AC
:1032E0000068456370BD0122EEE70000000C01405C
:1032F000CC00002000210148FFF728BACC000020B4
:1033000070B50C00054611D05FF00002084E4FF476
:1033100080413046FEF7BDF822464FF4004130466A
:10332000FEF7B7F803480068856370BD0122EDE73A
:10333000000C0140CC00002004210148FFF706BA30
:10334000CC000020FEE770B500240021204600F0EC
:10335000F9F80025002000F05FF96D1CEDB2802D1A
:10336000F8D3641CE4B2082CEFD370BD70B51548D7
:1033700086B0816941F0080181618069124E00F0D8
:1033800008000490002002901120019003204FF4C7
:1033900080740390694600943046FDF785FF650010
:1033A000694630460095FDF77FFF012221463046F1
:1033B000FEF76FF8012229463046FEF76AF806B09C
:1033C00070BD000000100240000C01402DE9F047E4
:1033D000164E002407464FF080084FF40079B515CB
:1033E00028FA04F0384201D0012200E000224946C8
:1033F0003046FEF74EF8012229463046FEF749F8DE
:10340000002229463046FEF744F8641CE4B2082C3A
:10341000E6D3012229463046FEF73BF829463046DE
:10342000BDE8F0470022FEF734B80000000C014070
:1034300070B501220B4D540221462846FEF729F8AB
:103440000122160231462846FEF723F800222146C3
:103450002846FEF71EF831462846BDE87040002297
:10346000FEF717B8000C014070B50A4D4FF4007418
:10347000002221462846FEF70CF8012211022846B8
:10348000FEF707F821462846BDE870400122FEF706
:1034900000B80000000C014010B500204FF47A7213
:1034A0000021491C9142FCD3401C9042F8D3FFF705
:1034B0005DFFAE2000F09FF8D52000F09CF8802042
:1034C00000F099F8A82000F096F83F2000F093F85B
:1034D000D32000F090F8002000F08DF8402000F09C
:1034E0008AF8A12000F087F8C82000F084F8DA20DC
:1034F00000F081F8122000F07EF8812000F07BF8C7
:10350000CF2000F078F8D92000F075F8F12000F015
:1035100072F8DB2000F06FF8302000F06CF8A42087
:1035200000F069F8A62000F066F88D2000F063F83E
:10353000142000F060F8AF2000F05DF8BDE8104006
:10354000FFF701BF10B50C4640F0B00000F053F893
:10355000102040EA141000F04EF804F00F00BDE80F
:10356000104000F048B800002DE9F0410746CE00B9
:103570004000083E801E15464FF0FF38F1B2C0B241
:10358000FFF7E0FF1148002400EB05152819A0F50E
:10359000805090F8000E00F03FF8641CE4B2082C54
:1035A000F4D308EB4700F1B2C0B2FFF7CBFF002421
:1035B0002819A0F5805090F8080E00F02DF8641C32
:1035C000E4B2082CF4D3BDE8F0810000C05200083A
:1035D0002DE9F04115460E460746002406E0301955
:1035E000C1B23846FFF7C0FF641CE4B22A5D002A6E
:1035F000F5D1BDE8F08110B50446FFF719FF78203A
:10360000FFF7E4FE0020FFF7E1FE2046FFF7DEFEB5
:10361000BDE81040FFF728BF10B50446FFF708FFCC
:103620007820FFF7D3FE4020FFF7D0FE2046FFF7BB
:10363000CDFEBDE81040FFF717BF70477047FEF79B
:10364000EDB930B58FB028216846FCF76AFE142129
:103650000AA8FCF766FE01210804CDE90010002449
:10366000029402250491CDE907504FF440200990BF
:103670006846FEF747FB08B172B6FEE70F20CDE9BA
:103680000A054FF48060CDE90C4001210AA80E9490
:10369000FEF75CFA002801D072B6FEE70FB030BD2D
:1036A000704700000148FEF7FDBE0000A4010020A5
:1036B000F0B50268194B1A4C1A4D4FF080479842EA
:1036C00005D0B84203D0A04201D0A84203D122F0D5
:1036D00070064A683243984205D0B84203D0A042EF
:1036E00001D0A84203D122F44074CA6822434C6935
:1036F00022F08002224302608A68C2620A68826203
:10370000984201D109690163012141610169C90739
:1037100003D0016921F001010161F0BD002C0140DD
:10372000000400400008004010B501F01F03012113
:10373000046A99408C430462016A9A401143016211
:1037400010BD10B5846842EA032224F47F440A4382
:103750002243826010BD826822F070020A4342F068
:10376000070181607047000030B5036A026A22F0E9
:10377000010202624268846924F073050C682C43DC
:1037800023F002058B682B430A4DA8420BD123F08E
:103790000805CB6822F440722B434D6923F00403E3
:1037A00015438A692A434260846149684163036220
:1037B00030BD0000002C014030B5026A036A23F0DE
:1037C00010030362436884690D6824F4E64444EA04
:1037D00005248D6822F0200242EA05120B4DA84212
:1037E0000ED1CD6822F0800242EA05124D6923F421
:1037F000406343EA85038D6922F0400243EA850372
:103800004360846149688163026230BD002C0140DD
:1038100030B5036A026A22F4807202624268C469A7
:1038200023F4007324F073050C682C438D6843EA7D
:1038300005230C4DA8420ED1CD6823F4006343EA62
:1038400005234D6922F4405242EA05128D6923F4A2
:10385000806342EA05124260C4614968C163036241
:1038600030BD0000002C014030B5046A026A22F429
:10387000805202624268C3690D6823F4E64343EA5A
:1038800005238D6824F4005444EA0534064DA8420B
:1038900004D14D6922F4804242EA85124260C3613C
:1038A00049680164046230BD002C014010B5036A10
:1038B000046A24F001040462846924F0F00444EAF8
:1038C000021423F00A020A438461026210BD10B59B
:1038D000036A046A24F010040462846923F0A003DC
:1038E00024F4704444EA023243EA01118261016225
:1038F00010BD01680C3151E8002F22F4907241E8AC
:103900000023002BF5D10168143151E8002F22F07B
:10391000010241E80023002BF5D1016B012909D1F7
:1039200001680C3151E8002F22F0100241E8002319
:10393000002BF5D1202180F842100021016370474F
:1039400070B5044600680169E26821F440511143F2
:1039500001612169A0680843616908432168CA6858
:1039600041F20C639A430243CA6020684169A2692C
:1039700021F44071114341611E492068884202D1FF
:10398000FEF78AF901E0FEF777F900EBC00101EBE1
:103990000012606864218000B2FBF0F3B3FBF1F326
:1039A0006FF018067343B2FBF0F5B2FBF0F605EBCF
:1039B0008305322303EB0515B5FBF1F5B6FBF1F6F4
:1039C00005F0F00505EB0615B2FBF0F6B2FBF0F0E2
:1039D000B0FBF1F06FF01802504306EB800003EBF0
:1039E0000010B0FBF1F0216800F00F00284488605F
:1039F00070BD0000003801402DE9F8439846174695
:103A00000D460446089E24E0701C22D0FDF746FDBA
:103A1000A0EB0800B0421AD8CEB12068C1684907AF
:103A200017D5802D15D0402D13D00168C943090743
:103A30000FD401680025406800902046FFF759FF29
:103A40000820606484F840500120BDE8F88303201A
:103A5000FBE72068006835EA000004D00020B84287
:103A6000D2D00020F1E70120F9E7FEE7490050EA53
:103A7000C12018BF04204A0D18BF40F0010040F2D9
:103A8000FF72B2EB515F08BF40F00200012808BF8F
:103A9000052070474100080218BF04200A0E18BF15
:103AA00040F001004FF07F4232EA010108BF40F0D0
:103AB0000200012808BF052070470907090E0028E9
:103AC00004DB00F1E02080F80014704700F00F00E4
:103AD00000F1E02080F8141D704701F0A1B86FF0EC
:103AE0005E01080701F099BB30380A2801D2012095
:103AF00070470020704700002DE9F0474FF0684202
:103B000002EB40030C460546B3F1654F3CBF02EBA8
:103B10004102B2F1654F7CD2C0F3C753C1F3C75223
:103B20009A1A1B2A06DD10F0004F14BF764877481A
:103B3000BDE8F08712F11A0F17DA11F0004F06D026
:103B400010F0004F0CBF72487248BDE8F087214664
:103B5000284601F0CDF80446FFF79CFF042808BF73
:103B6000FFF7BDFF2046BDE8F0874200B2EB410FF2
:103B700025D910F0004F19BF674F684E684F694E46
:103B8000224685F0004415460A4680F00041104662
:103B90000A1A5200B2F1807F40D248406249DFF8F1
:103BA0008CA110F0004F18D04FF03F48384601F07C
:103BB0008BFA07465146304601F086FA17E011F0BD
:103BC000004F04BF00263746E2D010F0004F19BF67
:103BD000574F584E584F594EDAE74FF07C583846F9
:103BE00001F01EF807465146304601F019F8064626
:103BF0004146284601F092F9214601F011F882462B
:103C00002146404601F08AF9294601F053FA51460F
:103C100000E037E001F06CF8044604E02146284655
:103C200001F066F80446014601F078F980464449FF
:103C300001F074F9434900F0F3FF414601F06EF9D9
:103C4000414900F0EDFF414601F068F93F4900F0BD
:103C5000E7FF414601F062F93D4900F0E1FF05460A
:103C60004146204601F05AF9294601F057F93146FC
:103C700000F0D6FF214600F0D3FF3946BDE8F047FB
:103C800000F0CEBF4FF07F42B2EB400F28BFB2EB47
:103C9000410F03D2BDE8F047FFF71FBF40EA010321
:103CA0005B0008BF44F0FF410AD0B2EB400F08BFF1
:103CB000B2EB410F06D125F0804024F0804105464B
:103CC0000C4629E7B2EB400F12BF5FEA410245F014
:103CD000FF4004F000413FF41FAF4A0092EA400366
:103CE0003FF51AAF002AACBF4FF09F464FF03E564B
:103CF000314601F013F905463146204601F00EF930
:103D000004462846214607E7DB0FC9BFDB0FC93F42
:103D1000DB0F4940DB0F49C00000C9BF22AAFDB933
:103D20000000C93F22AAFD390060ED3EC30ACE372C
:103D3000000049C022AA7DBA0000494022AA7D3A6B
:103D40002DAD65BD8FB8D53D0FB511BE61C84C3ED8
:103D5000A8AAAABEF8B5002425460D4ECDF800400D
:103D6000FFF78CF800B17581B6F90A0001F0BEF8D2
:103D7000214600F055FF04460098401C009003289F
:103D8000EEDB0449204600F0B3FFF060F8BD000010
:103D9000300000200000404010B51FA086B0006831
:103DA00000906423012269461C48FEF7A3FD1CA075
:103DB000642300680190012201A91848FEF79AFDCA
:103DC000184C206801F072F88DF808006423012275
:103DD00002A91248FEF78EFD606801F067F88DF8C1
:103DE0000C006423012203A90C48FEF783FD0CA0FC
:103DF000642300680490012204A90848FEF77AFDB4
:103E000005A0642300680590012205A90348FEF778
:103E100071FD06B010BD000003000000EC010020A1
:103E2000FC000000340200202DE9F041244A907883
:103E300000281FD1234C207A0025012817D0207D8F
:103E4000012819D094F820C01F4E204F4FF07E510A
:103E500033683868BCF1010F17D094F82CC0BCF15E
:103E6000010F07D1D27802B3012A26D122E0012026
:103E700090702572BDE8F081D078401CC0B2D0703F
:103E8000022800D3D5702575F4E7D27812B1012A43
:103E900008D104E0184600F0C3FE306002E000F0F4
:103EA000BFFE386084F82050E4E7184601F00CF9B2
:103EB000306002E001F008F9386084F82C50D9E74E
:103EC00000000020D002002020000020240000205C
:103ED0002DE9F041264D08212846FDF7D5FA254C5D
:103EE000607010212846FDF7CFFA6073E914224D67
:103EF0002846FDF7C9FA6076A9142846FDF7C4FAEA
:103F000084F82500002040F2C67601254FEA000320
:103F100000EB400214F8221011B1012922D106E071
:103F200004EB82014F78EFB904F8225019E004EB5A
:103F300082014F781FB14F78012F04D012E04A68F8
:103F40000A324A600EE04F68142F04D34F68B7421C
:103F500001D80D7203E04F68B74200D94D7204F8E2
:103F600022304B60401CC0B20428D1D3BDE8F081A0
:103F7000000C0140D0020020000801401FB5FDF7F1
:103F800055FDFFF75EFBFEF7AFFFFFF767F8FFF7A2
:103F9000D9F8FFF70BF9FFF73FF9FFF73FF8FFF705
:103FA0006FF9FFF779FA3C216C48FEF733FA3C21B0
:103FB0006B48FEF72FFA6B48FEF700F901229102D9
:103FC0006948FDF766FA01210020FFF777F9FFF74E
:103FD00091F901210020FFF793F9FFF7ADF9634C48
:103FE000002523461A4601216148009500F0FAF8A1
:103FF00023461A4601215F48009500F0F3F85E4819
:10400000002300905D4A19465D4800F0EBF800215E
:10401000084600F0B5F93220FDF726F9FEF7D4FC8A
:10402000FFF798FEDFF84891DFF848A1DFF854B1B8
:10403000DFF85481554C00BFDAF8040000F0C4FDED
:1040400006460F46D9F8040000F0BEFD8DE8C30017
:104050004FA21E215348FCF7C3F80121514A0846DC
:10406000FFF7B6FADBF8000000F0AEFDCDE9000185
:104070004DA21E214B48FCF7B3F84A4A0121022009
:10408000FFF7A6FA4646D8F8000000F09DFDCDE9FE
:10409000000145A21E214348FCF7A2F8414A012134
:1040A0000420FFF795FA2078012800D12570607868
:1040B000012831D13F4A40494048FEF76BFC3F4858
:1040C000B0F9000000F075FB00223D4B00F09AFAB9
:1040D0004FF000423B4B00F083FB00F061FA3A499D
:1040E000074608603448B0F9000000F062FB002287
:1040F000364B00F087FA4FF0C042354B00F070FBB2
:1041000000F04EFA334908603946FFF7F5FC3249B2
:1041100000F004FF30606570A07801281BD12F48A3
:1041200002682F490B681A4443F2B1639A4204D9DA
:104130000220A070002108460BE0006809680844CE
:1041400042F6F921884202D91421084601E05021A3
:10415000084600F015F9FFF767FE6DE7140100202F
:104160005C010020A4010020000801400000204163
:104170003402002068020020CDCC4C3D9A99993E33
:104180009C0200204000002054000020000000207D
:10419000523D252E30662020204C3D252E306620B5
:1041A0002020000058000020252E326620202020EC
:1041B00000000000480000204600002044000020CD
:1041C00000803C40C2F5F03F4C00002000002B4036
:1041D0006666EE3F500000201B2F65421400002051
:1041E0001800002010B5029C80F83010143080E8D0
:1041F0001C0010BD2DE9F0470446D4E9000100F091
:1042000063FF0646A06094F83000E568012801D0FD
:1042100038B346E02946304600F056FF616900F0A9
:104220007DFE814620623146A06900F077FE80461F
:10423000A0620121284600F0F0FF314600F03AFF6D
:10424000216900F0EDFCE16900F068FE074660625C
:104250004146484600F0E4FC394600F0E1FCE16AE2
:104260001CE03146606900F059FE8146206231460B
:10427000A06900F053FEA16A00F0D2FC8046A06263
:104280002946304600F020FFE16900F047FE07466E
:1042900060624146484600F0C3FC394600F0C0FC6D
:1042A000E062C4E90365BDE8F08700002DE9F04154
:1042B0002C480078022801D100F080F82A480468D0
:1042C000606A00B200F012FE284D00276860676245
:1042D000686800F0EBFD26490A681044086025482C
:1042E0000668706A00B2404200F000FE05F1340436
:1042F00060607762606800F0D9FD1F490A68104469
:1043000008602846FFF776FF2046FFF773FF284630
:1043100000F046F8204600F043F8E86A174DA8423E
:1043200004D200F0C3FD80B2012105E080F000401E
:1043300000F0BCFD80B20021FEF7C0FFE06AA84299
:1043400004D200F0B3FD80B2012105E080F000400E
:1043500000F0ACFD80B20021FEF7D2FFBDE8F041D5
:10436000FFF71ABD020000201401002034020020D3
:10437000180000205C010020140000200000808054
:1043800010B50C4600F0B2FD044A1060204600F063
:10439000ADFD02493431086010BD00003402002038
:1043A000044AC16A914202DA034A914200D3C262CE
:1043B0007047000000409C4600409CC62DE9FE4F1F
:1043C00000F078F800F0F5F9364E04460D463068F6
:1043D00000F0EFF922462B4600F000FB82460291E6
:1043E0002046294600F0B6F930602F48B0F90000A9
:1043F00000F07CFD2D49096800F066FE316900F08F
:104400008DFD2B4900F074FC00F0DEFBCDE90001CE
:1044100025F0004720462B462246394600F0E0F9B9
:1044200007468846F06800F0CFFB3A46434600F066
:10443000D7F983468946B06800F0C6FB5246029B16
:1044400000F0CEF907468846706800F0BDFB2246B2
:104450002B4600F0C5F93A46434600F0D3F85A46D9
:104460004B4600F0CFF8DDE9002300F0CBF800F078
:1044700097F800F0FFFCD0F1320200F1320000D5D5
:104480000022002800DA0020462A00DD46224628C5
:1044900000DD462003B001B2BDE8F04F10B2FFF7D7
:1044A0006FBF00001C0000203A0000203C000020EC
:1044B000333383412DE9F047284E00252C46202137
:1044C0003046FCF7E1FFDFF8989028B90020254935
:1044D00000F040F90546012410213046FCF7D4FFD6
:1044E000DFF884804FF0333750B9284600F061F987
:1044F0003A46434600F07EFA00F02CF90546641C6B
:1045000004213046FCF7C0FF50B9284600F051F9AD
:104510003A46434600F076F800F01CF90546641C64
:1045200001211248FCF7B0FF50B9284600F041F9CC
:1045300000224B4600F066F800F00CF90546641CBA
:104540001CB195FBF4F0BDE8F0870948006800282D
:1045500001DD0320F7E76FF00200F4E700080140F7
:104560000000F83F0000F8BF3333D33F000C014098
:104570001C00002010B500290AD00878002807D0B8
:1045800005487844FCF75AFA002801D0002010BDF5
:104590000248784410BD0000E2130000DA13000066
:1045A00021F00042A2F16052B2F5801F01F00043F9
:1045B00028BFD2F17F6C0BD95FEA001C43EAC2022C
:1045C00042EB507018BF704728BF20F001007047C1
:1045D000B2F5801FBCBF184670474FEA410C1CF56E
:1045E000001F02D2084600F060BD70B500F0A2F9CD
:1045F00000000089FFF7F6BF4FF00040A0F58000F3
:104600007047000010B591EA030F48BF83F00043E4
:1046100000F1F881841A71EB030C05D2121943EBF7
:104620000C03001B61EB0C01DFF824E14FEA11548D
:10463000A4EB135C1EEA430F18BF9EEA445F73D0DD
:1046400023EA0E03DCF1200E21EA045143F4801327
:1046500032D322FA0CFE10EB0E0023FA0CFE41EBD3
:104660000E01CCF1200E03FA0EFE10EB0E0051F1FC
:104670000001B1F5801FCCF1200E32D201EB0451C4
:1046800012FA0EF2BDE8104058BF7047401C38BF08
:104690005FEA420218BF7047002814BF20F00100F3
:1046A00041F100014FEA410313F5001F38BF704785
:1046B000A1F1C04100F08CB9012A43EB0302ACF137
:1046C000200CDCF11F0E32BF4FF0000E23FA0CF36A
:1046D00010EB030041EB0451B4EB115FD0D0A1EB20
:1046E000045101F5801149085FEA300001EB0451E3
:1046F0000ED350F1000038BF12FA0EFE08D1BDE80B
:104700001040C9E7401C38BF5FEA4202CAD1C3E784
:10471000BDE810404FEA410313F5001F38BF704752
:10472000A1F1C04100F054B99EEA445F08D011EAFB
:104730005E0FBDE8104004BF01F00041002070474B
:10474000BDE8104070B500F0F5F800BF64FBBE3E58
:104750000000E0FF4FEA41034FEA5353A3F58063A3
:10476000D3F11E03C8BFD3F1210C0CDD4FF0004282
:1047700042EAC12242EA505232FA03FC8CEAE17C5E
:10478000ACEBE1707047102BC4BF0020704703F5FD
:10479000787CBCF1FF3F04D06FF0004282EA210038
:1047A000704770B500F0C6F8499224800020704729
:1047B000F2E710F0004248BF4042B0FA80F310FA2E
:1047C00003F10AD0C3F11D0303F580634FEA4150A2
:1047D00002EB035202EBD12170474FF0000070470B
:1047E000DFF848C170B51CEA111E1EBF1CEA131584
:1047F0009EEA0C0F95EA0C0F00F06F8081EA03042B
:1048000023EA4C134EEAD47E21EA4C1141F4801184
:1048100043F48013AE44A1FB024CA0FB0365AEF150
:104820007F7E361955EB0C05A1FB034C4CF10003C0
:10483000A0FB021C16EB0C06654153F10003094274
:1048400018BF46F0010613F4007F0BD14FEA033185
:104850004FEA0530340341EA155140EA16506FF033
:1048600003020AE04FEAC3214FEAC520F40241EAFD
:10487000555140EA56506FF0020202EB2E4201EB16
:10488000025585EACE710AD05FEA440C18BF24F0C5
:10489000004450F1000041F1000120EAD47040F2E0
:1048A000FE7C624500D270BDA84214BF4FF0804428
:1048B0004FF04044002E08BF0024BEF1806FA8BF17
:1048C000A1F1C041BDE8704080F282804FF000004D
:1048D00001F1C04101F0004170479EEA0C0F0CEA63
:1048E000131518BF95EA0C0F06D04FF0000081EAAF
:1048F000030E0EF0004170BD00F01CF88900013E6F
:1049000000F007B800F009B84FEA430C5FEA5C5CBE
:1049100008D081EA030100F05BB84FEA410C5FEA7E
:104920005C5CF6D14FF00000014970470000FF07C2
:104930000000F87F0EF1020E2EF0030E5EF8046BFD
:10494000364205D4012A43EB030515F5001F12D8A2
:10495000012841EB010C1CF5001F0CD80ED14FEAC9
:10496000D17C15F5001F0CEB4C0C0CF1020C08BFB0
:104970004CEBD37C04E04FF0080C01E04FEAD37C11
:104980000CEB4C0526FA05F606F00706B6F1040C0A
:1049900006D20EEB860CBDE870404CF0010C60476F
:1049A000DFE80CF0090B02024FF000414FF000006D
:1049B000A1F5002170BD19461046012851EB0104F4
:1049C00018BFD4F5001484BF002001F0004170BD71
:1049D0000808A0F500114FEA3101704791EA030F72
:1049E00010B581F000413FF515AE83F0004300F0B3
:1049F00009B8000010B591EA030F48BF83F00043E7
:104A00003FF508AE841A71EB030C07D212198CF033
:104A1000004C43EB0C03001B61EB0C01DFF8A4E13D
:104A20004FEA1154A4EB135C1EEA430F18BF9EEA31
:104A3000445F00F0B08023EA6E03524221EA045141
:104A4000C3EB6E0338BF5B1EDCF1200E25D322FAC8
:104A50000CFE10EB0E0043FA0CFE41EB0E01CCF104
:104A6000200E03FA0EFE10EB0E0051F10001CCF106
:104A7000200E29D412FA0EF201EB0451BDE81040C9
:104A800058BF7047401C1CBFB2F1004F7047002850
:104A90000CBF491C20F00100704712EB020E43EBE3
:104AA000030218BF4FF0010E4EEA4202ACF1200C97
:104AB000DCF11E0E54D943FA0CFE10EB0E0051F13E
:104AC000FF31CCF11E0ED5D50EF1010E12FA0EFEFD
:104AD000404141EB010101EB445C5FEA5C5C10D9B1
:104AE00010EBDE7001EB045138BFBEF1004FBDE8A2
:104AF000104018BF704700280CBF491C20F001006F
:104B0000704730D24FEAD42C11F5001124F4006420
:104B10001BD0B1FA81F20B3AA41AA41ED2F12003E1
:104B2000914030FA03F31943904001EBCC71002C13
:104B300001EB0451BDE81040A8BF704701F1C0412E
:104B40004FF0000001F000417047B0FA80F310FA16
:104B500003F100D110BDE41A173C4805C90AE4E787
:104B600001EB045110BD491001EB0451BDE81040A8
:104B70004FEA300002E04FF0000170474A0008BFE2
:104B80000042F8D0B2F5001F28BF704701F0004185
:104B90004FF0000070479EEA445F07D011EA5E0FB5
:104BA000BDE8104004BF002100207047BDE8104060
:104BB00070B5FFF7BFFE00BF40DFF63E83F0004157
:104BC000104670470000E0FF43004FEAD30C4FEA65
:104BD0003C0C43401FBF40070CF1605113F0FE4FE7
:104BE00070471CF0006F03D100200CF000417047AB
:104BF0000CF0004343EA507010B540EACC0000F0DE
:104C00000EFA00BF000000924FEA0001FFF7E0BE7D
:104C10004FF000414FF00000A1F500217047000067
:104C200090EA010F48BF81F0004100F15482421A1E
:104C30003CBF801A89184FEAD0524FF07F4C1CEAD3
:104C4000410FA2EBD15318BF9CEA026F00F03B80EA
:104C50004FF0004C4CEA00204CEA012121FA03FC01
:104C600010EB0C0C1ED202F1FF325FEA1C2040EB6D
:104C7000C25038BF70471CF07F0F4FEA400C18BF7E
:104C8000BCF17F4F38BF7047C3F12003994008BF84
:104C900020F00100BCF17F4F38BF7047A0F1C04049
:104CA00000F003BA4FEA3C00000A40EBC25028BFB4
:104CB0001CF0FF0F4FEA400CE6D018BFBCF17F4F4D
:104CC00038BF7047EAE79CEA026F05D010EA5C0F34
:104CD00008BF00F00040704710B500F0A0F900BF19
:104CE00064FBBE3E014800F066BA00BF0000C07F12
:104CF0004FF47F0C1CEAD0121EBF1CEAD11392EABB
:104D00000C0F93EA0C0F00F0858090EA010F48BF6A
:104D100042F4807240F4000C41F400002CF07F411A
:104D200020F07F4000B58142A2EB03020FF2081C85
:104D3000ACEB504EC0F100009EF800E04FEA4E0E82
:104D400000FB0EFC38BF49004FEA2C1C02F5FA02AA
:104D50000CFB0EF34FEACE1E4FEA112C4FEAC12195
:104D60000EEB635E42EB22420EFB0CFC4FEA1C533F
:104D700000FB03114FEA112C4FEA01310EFB0CFC32
:104D80004FEADC4C00FB0C11C14228BF09184CEB68
:104D900003335DF804EB10EB410143EBC250B2F575
:104DA0007C0F38BF704729D512F0F00F1CBF00F1FF
:104DB000C04000F000407047008182838485868770
:104DC00088898B8C8D8E8F919293959697999A9CCA
:104DD0009D9FA0A2A3A5A7A8AAACAEB0B2B3B5B739
:104DE000B9BCBEC0C2C5C7C9CCCED1D4D7D9DCDF0F
:104DF000E2E6E9ECF0F3F7FAFE0000004FEA400CBF
:104E00000CF1807CBCF17E4F28BF7047B0F1C040F0
:104E100000F04BB990EA010F0CEAD11348BF42F4FD
:104E20008072624538BF634507D213F47F0F16D0F6
:104E300080EA010000F00040704710B500F0EFF884
:104E4000097EFC3E00F005B880EA010000F0004059
:104E5000704780EA010000F0004000F026B912F42B
:104E60007F0F04BF0248704780EA010000F01DB9BF
:104E70000000C07F41000B0ED3F19E0208D950F410
:104E800000034FEA032323FA02F048BF4042704771
:104E900010B500F0C4F800BF49922480002070478C
:104EA0006FF0004282EA200070470000C10DD1F18E
:104EB0009E0206DB4FEA002343F0004323FA02F090
:104EC0007047004207D54FEA4001B1F1FE4F02D2D0
:104ED0004FF00000704710B500F0A1F8499224800F
:104EE000002070476FEA20007047000010F000417A
:104EF00048BF4042B0FA80F310FA03F2C3F19D03B9
:104F00000BD051EAC35101EB1220530638BF704752
:104F100000F1010008BF20F0010070474FF47F0C42
:104F20001CEAD0121EBF1CEAD11392EA0C0F93EABE
:104F30000C0F00F0478090EA010F48BF42F48072E6
:104F40004FF0004C4CEA00204CEA012102EB030236
:104F5000A0FB0113A2F50002002918BF43F00103D2
:104F60005B0028BF4FEA330342EB22425FEA132C77
:104F70004CEBC2502EBFBCEB436FB2F57C0F7047B9
:104F80004FEA036CBCF1004F08BF20F00100B2F5FE
:104F90007C0F38BF70470BD582F0FF0212F5803FBF
:104FA000C8BF704700F1C040D8BF00F00040704754
:104FB00000F5000C5FEA4C0C48BF7047B0F1C040F0
:104FC00000F073B890EA010F0CEAD11348BF42F425
:104FD0008072624538BF634504D280EA010000F068
:104FE0000040704710B500F01AF800BF8900013E7C
:104FF00000F007B800F009B85FEA410C5FEA1C6CEA
:1050000008D080EA010000F050B85FEA400C5FEA87
:105010001C6CF6D14FF00040A0F5800070470EF1F7
:10502000020E2EF0030E5EF8044B244204D44FEA25
:105030004102B2F17F4F11D84FEA4003B3F17F4FE5
:105040000CD80ED14FEAD07CB2F17F4F0CEB4C0C58
:105050000CF1020C08BF4CEBD17C04E04FF0080CC3
:1050600001E04FEAD17C0CEB4C0324FA03F404F08A
:105070000704B4F1040C06D20EEB840CBDE810401A
:105080004CF0010C6047DFE80CF0070802024FF01B
:105090000040A0F5800010BD0846420018BFD2F1C4
:1050A000807288BF00F0004010BDFF2141EAD0505F
:1050B000C005704780F0004090EA010F7FF5B7AD62
:1050C00081F0004100F007B890EA010F48BF81F07D
:1050D00000413FF5ACAD421A04D882F00042A0EB8B
:1050E000020011444FEAD0524FF07F4C1CEA410FAE
:1050F000A2EBD15318BF9CEA026F4AD04FF0004C8C
:105100004CEA00204CEA012121FA03FCB0EB0C0C24
:105110000FD412F0FE0F36D05FEA4C001DD50012FE
:1051200040EBC25038BF70471CF03F0F18BF7047AC
:105130000BE0A2F101025FEA1C2040EBC25038BF35
:1051400070471CF07F0F18BF7047C3F120039940D0
:1051500014BF401E20F00100704780084FEA122360
:1051600008BF7047B0FA80FCA2EB0C02CCF1280C0F
:1051700060FA0CF093EA122F04BF00EBC2507047A4
:105180004FEAC3707047130A5FEADC1008BF70472C
:10519000F6E79CEA026F04D010EA5C0F08BF00201B
:1051A000704710B5FFF73BFF40DFF63E81F000404F
:1051B0007047FBF7B9B90CF00F03092B08BF0820A3
:1051C00000F051800A2B0BD0082B18BF704708BF86
:1051D0001CF0400F0AD04FF000004FF00001704764
:1051E0001CF0400F18BF4FF0004070471CF0100F2C
:1051F00008D020F0704300F07F4242EAD3014FEA2A
:105200004370704700F0604021F07F4242EA0002A4
:1052100001F07F4040EA727070474FF0FF0212EADF
:10522000D0521CBF92F0FF038B42C2BFD14200EBB1
:10523000C1507047002A0AD0002B0BD0002900F083
:105240000040A4BF40F0FE4040F40000704700F072
:105250000040704743024FF00B0C18BF4CF0806CBD
:105260007FF440AD70471CF4801F11D01CF4E02F78
:1052700003D06FEACC31490070474FF04050EFF354
:10528000008222F0704242EA000282F300887047F6
:105290004FF00000704701020203040506070809E9
:1052A0000A0B0C0D0E0F1010000000000000000093
:1052B00001020304060708090000000001020304BC
:1052C00000000000000000000000000000000000DE
:1052D000000000F800000000000000333000000073
:1052E00000100C06100C060000000000000000007A
:1052F00040C07840C0784000043F04043F040400EC
:10530000007088FC08300000001820FF211E0000FB
:10531000F008F000E018000000211C031E211E0010
:1053200000F00888700000001E2123241927211096
:1053300010160E0000000000000000000000000039
:10534000000000E0180402000000000718204000E0
:1053500000020418E00000000040201807000000D0
:10536000404080F0804040000202010F0102020034
:10537000000000F0000000000101011F0101010018
:10538000000000000000000080B07000000000007D
:105390000000000000000000000101010101010106
:1053A000000000000000000000303000000000009D
:1053B0000000000080601804006018060100000072
:1053C00000E010080810E000000F102020100F006F
:1053D000001010F8000000000020203F20200000F6
:1053E000007008080888700000302824222130004E
:1053F00000300888884830000018202020110E0056
:105400000000C02010F8000000070424243F2400FE
:1054100000F80888880808000019212020110E00D3
:1054200000E0108888180000000F112020110E00E5
:1054300000380808C83808000000003F00000000DD
:105440000070880808887000001C222121221C009E
:1054500000E010080810E0000000312222110F00C7
:10546000000000C0C000000000000030300000005C
:1054700000000080000000000000806000000000CC
:1054800000008040201008000001020408102000E5
:105490004040404040404000040404040404040030
:1054A00000081020408000000020100804020100C5
:1054B000007048080808F0000000003036010000C5
:1054C000C030C828E810E0000718272423140B0078
:1054D0000000C038E0000000203C230202273820F2
:1054E00008F8888888700000203F202020110E00D6
:1054F000C0300808080838000718202020100800CD
:1055000008F808080810E000203F202020100F00B5
:1055100008F88888E8081000203F20202320180081
:1055200008F88888E8081000203F200003000000E9
:10553000C03008080838000007182020221E02008A
:1055400008F808000008F808203F210101213F2049
:10555000000808F8080800000020203F2020000074
:1055600000000808F8080800C08080807F00000064
:1055700008F888C028180800203F2001263820009D
:1055800008F8080000000000203F20202020300004
:1055900008F8F800F8F80800203F003F003F20001E
:1055A00008F830C00008F808203F200007183F0026
:1055B000E01008080810E0000F10202020100F0055
:1055C00008F808080808F000203F21010101000048
:1055D000E01008080810E0000F18242438504F008D
:1055E00008F8888888887000203F2000030C30204D
:1055F00000708808080838000038202121221C008B
:10560000180808F8080818000000203F20000000D3
:1056100008F808000008F808001F202020201F00BC
:105620000878880000C83808000007380E0100001C
:10563000F80800F80008F800033C0700073C0300E6
:10564000081868808068180820302C03032C30204C
:105650000838C800C83808000000203F20000000BB
:1056600010080808C8380800203826212020180013
:10567000000000FE020202000000007F40404000E7
:10568000000C30C000000000000000010638C0001F
:1056900000020202FE000000004040407F000000C7
:1056A00000000402020204000000000000000000EC
:1056B00000000000000000008080808080808080EA
:1056C00000020204000000000000000000000000D2
:1056D00000008080808000000019242222223F20C8
:1056E00008F8008080000000003F112020110E000B
:1056F0000000008080800000000E1120202011009A
:10570000000000808088F800000E112020103F204B
:105710000000808080800000001F222222221300CF
:10572000008080F0888888180020203F202000001A
:105730000000808080808000006B949494936000CF
:1057400008F8008080800000203F210000203F20DA
:1057500000809898000000000020203F20200000DA
:10576000000000809898000000C08080807F0000CA
:1057700008F8000080808000203F24022D302000A7
:10578000000808F8000000000020203F2020000052
:105790008080808080808000203F20003F20003F6C
:1057A0008080008080800000203F210000203F207A
:1057B0000000808080800000001F202020201F002B
:1057C000808000808000000080FFA12020110E005A
:1057D0000000008080808000000E112020A0FF804B
:1057E000808080008080800020203F2120000100F8
:1057F000000080808080800000332424242419004D
:10580000008080E0808000000000001F2020000059
:105810008080000000808000001F202020103F209A
:10582000808080000080808000010E30080601002A
:1058300080800080008080800F300C030C300F00CF
:1058400000808000808080000020312E0E312000FA
:10585000808080000080808080818E70180601002A
:1058600000808080808080000021302C2221300048
:1058700000000000807C020200000000003F404069
:1058800000000000FF00000000000000FF0000001A
:105890000002027C800000000040403F0000000049
:1058A00000060101020204040000000000000000E4
:1058B00002400000000000A00000000005400000C1
:1058C000000000C8000000000C4000000000409CE8
:1058D00000000000194000000020BCBE00000000D5
:1058E00034400000BFC91B8E00000004B54000001A
:1058F000504BCFD06607E2CF010000006C410000A2
:105900003E8251AADFEEA73401000000D942000018
:10591000DCB5A0E23A301F97FFFFFFFFB44500005F
:10592000FD25A0C8E9A3C14FFFFFFFFFFF3F000017
:105930000000008000000000FF3F00000000008029
:1059400000000000805900080000002058000000FE
:1059500028010008D8590008580000200809000054
:10596000440100081C00000043000000F8FFFFFF96
:105970000C0000000E0000000F0000002E000000D0
:105980000000000001000000100000000000000006
:1059900000127A000000000000000000000000007B
:1059A0000000F0410000803F000000400000004087
:1059B00000000000000000000000000000000000E7
:1059C00000000000000000000000000000000000D7
:0859D0000000000000000000CF
:04000005080000ED02
:00000001FF
